{
  "_format": "hh-sol-artifact-1",
  "contractName": "DataConsumerV3",
  "sourceName": "contracts/DataConsumerV3.sol",
  "abi": [
    {
      "inputs": [],
      "stateMutability": "nonpayable",
      "type": "constructor"
    },
    {
      "inputs": [
        {
          "internalType": "int256",
          "name": "pair",
          "type": "int256"
        }
      ],
      "name": "getChainlinkDataFeedLatestAnswer",
      "outputs": [
        {
          "internalType": "int256",
          "name": "",
          "type": "int256"
        }
      ],
      "stateMutability": "view",
      "type": "function"
    }
  ],
  "bytecode": "0x608060405234801561001057600080fd5b50731b44f3514812d835eb1bdb0acb33d3fa3351ee436000806101000a81548173ffffffffffffffffffffffffffffffffffffffff021916908373ffffffffffffffffffffffffffffffffffffffff16021790555073694aa1769357215de4fac081bf1f309adc325306600160006101000a81548173ffffffffffffffffffffffffffffffffffffffff021916908373ffffffffffffffffffffffffffffffffffffffff16021790555073c59e3633baac79493d908e63626716e204a45edf600260006101000a81548173ffffffffffffffffffffffffffffffffffffffff021916908373ffffffffffffffffffffffffffffffffffffffff160217905550735fb1616f78da7afc9ff79e0371741a747d2a7f22600360006101000a81548173ffffffffffffffffffffffffffffffffffffffff021916908373ffffffffffffffffffffffffffffffffffffffff16021790555061051f806101736000396000f3fe608060405234801561001057600080fd5b506004361061002b5760003560e01c8063d25f08a414610030575b600080fd5b61004a600480360381019061004591906103a3565b610060565b604051610057919061045a565b60405180910390f35b6000600182141561011b5760008060009054906101000a900473ffffffffffffffffffffffffffffffffffffffff1673ffffffffffffffffffffffffffffffffffffffff1663feaf968c6040518163ffffffff1660e01b815260040160a06040518083038186803b1580156100d457600080fd5b505afa1580156100e8573d6000803e3d6000fd5b505050506040513d601f19601f8201168201806040525081019061010c91906103d0565b5050509150508091505061034a565b60028214156101d5576000600160009054906101000a900473ffffffffffffffffffffffffffffffffffffffff1673ffffffffffffffffffffffffffffffffffffffff1663feaf968c6040518163ffffffff1660e01b815260040160a06040518083038186803b15801561018e57600080fd5b505afa1580156101a2573d6000803e3d6000fd5b505050506040513d601f19601f820116820180604052508101906101c691906103d0565b5050509150508091505061034a565b600382141561028f576000600260009054906101000a900473ffffffffffffffffffffffffffffffffffffffff1673ffffffffffffffffffffffffffffffffffffffff1663feaf968c6040518163ffffffff1660e01b815260040160a06040518083038186803b15801561024857600080fd5b505afa15801561025c573d6000803e3d6000fd5b505050506040513d601f19601f8201168201806040525081019061028091906103d0565b5050509150508091505061034a565b6004821415610349576000600360009054906101000a900473ffffffffffffffffffffffffffffffffffffffff1673ffffffffffffffffffffffffffffffffffffffff1663feaf968c6040518163ffffffff1660e01b815260040160a06040518083038186803b15801561030257600080fd5b505afa158015610316573d6000803e3d6000fd5b505050506040513d601f19601f8201168201806040525081019061033a91906103d0565b5050509150508091505061034a565b5b919050565b60008135905061035e816104a4565b92915050565b600081519050610373816104a4565b92915050565b600081519050610388816104bb565b92915050565b60008151905061039d816104d2565b92915050565b6000602082840312156103b9576103b861049f565b5b60006103c78482850161034f565b91505092915050565b600080600080600060a086880312156103ec576103eb61049f565b5b60006103fa8882890161038e565b955050602061040b88828901610364565b945050604061041c88828901610379565b935050606061042d88828901610379565b925050608061043e8882890161038e565b9150509295509295909350565b61045481610475565b82525050565b600060208201905061046f600083018461044b565b92915050565b6000819050919050565b6000819050919050565b600069ffffffffffffffffffff82169050919050565b600080fd5b6104ad81610475565b81146104b857600080fd5b50565b6104c48161047f565b81146104cf57600080fd5b50565b6104db81610489565b81146104e657600080fd5b5056fea2646970667358221220720231bacac9356c2afa357428b846975d508e6f883efc63c5bcb18119bfb88464736f6c63430008070033",
  "linkReferences": {},
  "deployedLinkReferences": {}
}